:100000000C946B000C9493000C9493000C9493004C
:100010000C9493000C9493000C9493000C94930014
:100020000C9493000C9493000C9493000C941C0576
:100030000C9493000C9493000C9493000C949300F4
:100040000C947A040C9493000C94EA040C94C40469
:100050000C9493000C9493000C9493000C949300D4
:100060000C9493000C9493005059424F54564D0AEF
:1000700000000000002300260029005059424F5480
:10008000564D0A0000000000240027002A0000004E
:100090000000250028002B000404040404040404C8
:1000A0000202020202020303030303030102040823
:1000B00010204080010204081020010204081020D2
:1000C0000000000800020100000304070000000017
:1000D00000000000D80511241FBECFEFD8E0DEBF1E
:1000E000CDBF11E0A0E0B1E0ECE6F6E102C0059082
:1000F0000D92A631B107D9F725E0A6E1B1E001C024
:100100001D92A939B207E1F710E0CBE6D0E004C0B8
:100110002197FE010E942E0BCA36D107C9F70E9413
:100120003D060C94340B0C940000833081F028F4CD
:10013000813099F08230A9F008958730A9F0883095
:10014000C9F08430B1F4809180008F7D03C080912C
:1001500080008F7780938000089584B58F7784BD69
:10016000089584B58F7DFBCF8091B0008F77809309
:10017000B00008958091B0008F7DF9CF1F93CF9389
:10018000DF93282F30E0F901E054FF4F8491F9010B
:10019000E455FF4FD491F901E856FF4FC491CC23A9
:1001A000A9F0162F81110E949500EC2FF0E0EE0FC0
:1001B000FF1FE257FF4FA591B4918FB7F894EC91D0
:1001C000111108C0D095DE23DC938FBFDF91CF9152
:1001D0001F910895DE2BF8CFCF93DF9390E0FC01C1
:1001E000E455FF4F249188569F4FFC01849188234A
:1001F000D1F090E0880F991FFC01EC57FF4FA591BB
:10020000B491FC01E257FF4FC591D49161110EC02A
:100210009FB7F8948C91E22FE0958E238C932881E0
:10022000E223E8839FBFDF91CF9108958FB7F894C1
:10023000EC91E22BEC938FBFF6CF3FB7F89480910F
:10024000C7049091C804A091C904B091CA0426B50E
:10025000A89B05C02F3F19F00196A11DB11D3FBFFE
:10026000BA2FA92F982F8827BC01CD01620F711DCD
:10027000811D911D42E0660F771F881F991F4A95C7
:10028000D1F708958F929F92AF92BF92CF92DF9253
:10029000EF92FF926B017C010E941D014B015C01FA
:1002A000C114D104E104F104B9F00E941D016819E0
:1002B00079098A099B09683E73408105910580F39D
:1002C00021E0C21AD108E108F10888EE880E83E027
:1002D000981EA11CB11CE4CFFF90EF90DF90CF904F
:1002E000BF90AF909F908F9008952FB7F894609132
:1002F000C3047091C4048091C5049091C6042FBFBB
:100300000895AF92BF92CF92DF92EF92FF920F9338
:100310001F93CF93DF936C017B018B01040F151F9B
:10032000EB015E01AE18BF08C017D10759F0699103
:10033000D601ED91FC910190F081E02DC601099567
:10034000892B79F7C501DF91CF911F910F91FF9014
:10035000EF90DF90CF90BF90AF900895FC01538D48
:10036000448D252F30E0842F90E0821B930B54178F
:1003700010F0CF96089501970895FC01918D828D1C
:10038000981761F0A28DAE0FBF2FB11D5D968C91B5
:10039000928D9F5F9F73928F90E008958FEF9FEFF4
:1003A0000895FC01918D828D981731F0828DE80FB0
:1003B000F11D858D90E008958FEF9FEF0895FC016A
:1003C000918D228D892F90E0805C9F4F821B910937
:1003D0008F73992708958BEC94E00E94DF0121E050
:1003E000892B09F420E0822F089580E090E0892B8A
:1003F00029F00E94EB0181110C9400000895FC018A
:10040000A48DA80FB92FB11DA35ABF4F2C91848D75
:1004100090E001968F739927848FA689B7892C93D2
:10042000A089B1898C91837080648C93938D848D25
:10043000981306C00288F389E02D80818F7D808328
:100440000895EF92FF920F931F93CF93DF93EC01E8
:1004500081E0888F9B8D8C8D98131AC0E889F9896B
:10046000808185FF15C09FB7F894EE89FF8960836E
:10047000E889F98980818370806480839FBF81E0EF
:1004800090E0DF91CF911F910F91FF90EF90089531
:10049000F62E0B8D10E00F5F1F4F0F731127E02E0C
:1004A0008C8D8E110CC00FB607FCFACFE889F98944
:1004B000808185FFF5CFCE010E94FF01F1CFEB8D4A
:1004C000EC0FFD2FF11DE35AFF4FF0829FB7F89418
:1004D0000B8FEA89FB8980818062CFCF682F8BECFC
:1004E00094E00C9421020F931F93CF93DF938C0120
:1004F000D0E0C0E0F801EC0FFD1F6491662341F0ED
:100500008BEC94E00E942102892B11F02196F2CF0E
:10051000CE01DF91CF911F910F910895CF93DF937B
:10052000EC01888D8823B9F0AA89BB89E889F9890B
:100530008C9185FD03C0808186FD0DC00FB607FC40
:10054000F7CF8C9185FFF2CF808185FFEDCFCE0173
:100550000E94FF01E9CFDF91CF910895CF92DF9202
:10056000EF92FF92CF93DF93EC01603282E0780745
:10057000CCF5653B710514F064EB70E0898128E8E7
:1005800030E0281B310987FD3395220F331F220FDE
:10059000331F6901330FEE08FF088A8128E532E036
:1005A000281B310987FD3395220F331F220F331F7C
:1005B000032E000C440B550B2C193D094E095F0905
:1005C000DB0177FF02C0B0E0A0E00E94BA0A24EB92
:1005D00030E040E050E00E94900AC20ED31EE41EBC
:1005E000F51EB601E881EC3070F5298188E890E0CD
:1005F000821B910927FD9395880F991F880F991FDA
:10060000681779077CF02A8188E592E0821B9109BE
:1006100027FD9395880F991F880F991F68177907F1
:100620000CF4CB010297880F991F4FB7F8942E2F27
:1006300030E0F901EE0FFF1FE20FF31FE859FA4F08
:10064000928381834FBFDF91CF91FF90EF90DF9036
:10065000CF9008958F929F92AF92BF92CF92DF92E8
:10066000EF92FF926C010E9475014B015C01F12C2D
:10067000E12C0E947501681979098A099B096C159A
:100680007D058E059F0590F48BEC94E00E94DF01C0
:10069000892B79F38BEC94E0FF90EF90DF90CF9073
:1006A000BF90AF909F908F900C94BD018FEF9FEF04
:1006B000FF90EF90DF90CF90BF90AF909F908F9082
:1006C0000895CF92DF92EF92FF921F93CF93DF9323
:1006D000C0914A01E6E4F1E030E020E02C17B8F4E4
:1006E0009191A9014F5F5F4F98130FC0C901880F07
:1006F000991F820F931F83579A4FDF91CF911F91BC
:10070000FF90EF90DF90CF9008959A01E7CFC4302B
:1007100009F473C0D0E0FE01EA5BFE4F80837E01E6
:10072000EE0CFF1C97012C0F3D1FA90143575A4F98
:100730006A01FA0190819C3008F054C0182F61E0E2
:100740000E94EC00F6018081282F30E0F901EE0FC5
:10075000FF1FE20FF31FE859FA4F1F739081907C3F
:10076000192B1083F601118212822CE0622F0E9455
:10077000F30A829FB001112430E020E0AB01420F68
:10078000531FFA01EE0FFF1FE40FF51FE859FA4F50
:10079000908196FD16C02F5F3F4F2C30310571F7C9
:1007A00081110FC01092800082E08093810010922E
:1007B000850010928400B19A80916F0082608093CE
:1007C0006F00CE0DDF1DC357DA4FE8818E2F90E00A
:1007D000FC01EE0FFF1FE80FF91FE859FA4F808167
:1007E0008064808380914A0191E0980F90934A0140
:1007F000F3E08F9FC00111247ECF86E995E07DCF85
:10080000E0918104EE2359F0E150E0938104F0E09F
:10081000EE0FFF1FEA5EFE4F80819181089590E008
:1008200080E00895E0918104E83158F421E02E0F32
:1008300020938104F0E0EE0FFF1FEA5EFE4F9183EC
:10084000808308958F929F92AF92BF920F931F93D0
:10085000CF93DF93CDB7DEB7A1970FB6F894DEBF85
:100860000FBECDBF19A2423008F44AE08E010F5DE1
:100870001F4F842E912CB12CA12CA50194010E9414
:10088000C20AE62FB901CA01EA3044F5E05DD80199
:10089000EE938D01232B242B252B79F790E080E01C
:1008A000109769F0FD0101900020E9F73197AF0141
:1008B0004A1B5B0BBD018BEC94E00E948101A19669
:1008C0000FB6F894DEBF0FBECDBFDF91CF911F9161
:1008D0000F91BF90AF909F908F900895E95CD7CF14
:1008E0000C947A0A811524E0920710F40C94700499
:1008F00080E008951F920F920FB60F9211242F934C
:100900003F938F939F93AF93BF938091C304909134
:10091000C404A091C504B091C6043091C20423E080
:10092000230F2D3758F50196A11DB11D2093C20448
:100930008093C3049093C404A093C504B093C604E9
:100940008091C7049091C804A091C904B091CA04D1
:100950000196A11DB11D8093C7049093C804A09374
:10096000C904B093CA04BF91AF919F918F913F91F9
:100970002F910F900FBE0F901F90189526E8230F10
:100980000296A11DB11DD2CF1F920F920FB60F92EA
:1009900011242F933F934F935F936F937F938F9384
:1009A0009F93AF93BF93EF93FF938BEC94E00E94E0
:1009B000FF01FF91EF91BF91AF919F918F917F9137
:1009C0006F915F914F913F912F910F900FBE0F90BC
:1009D0001F9018951F920F920FB60F9211242F930C
:1009E0008F939F93EF93FF93E091DB04F091DC04EE
:1009F0008081E091E104F091E20482FD1BC09081CE
:100A00008091E4048F5F8F732091E504821741F099
:100A1000E091E404F0E0E553FB4F958F8093E4040C
:100A2000FF91EF919F918F912F910F900FBE0F909B
:100A30001F9018958081F4CF1F920F920FB60F92DE
:100A400011242F933F934F935F936F937F938F93D3
:100A50009F93AF93BF93CF93DF93EF93FF938091D7
:100A60004B01C0918C05D0E087FF24C01092850017
:100A70001092840080914B018F5F80934B01809195
:100A80004B01082E000C990B8C179D0724F48091C4
:100A90004B018C30C4F180918400909185000496C4
:100AA00080349C4908F47AC080918400909185003C
:100AB000049676C080914B01082E000C990B8C1780
:100AC0009D07C4F6E0914B018E2FEE0F990BFC01B0
:100AD000EE0FFF1FE80FF91FE859FA4F808186FFDC
:100AE000C9CFE0914B018E2FEE0F990BFC01EE0F59
:100AF000FF1FE80FF91FE859FA4F808160E08F73FC
:100B00000E94BE00B7CF2091840030918500E09113
:100B10004B018E2FEE0F990BFC01EE0FFF1FE80F1C
:100B2000F91FE859FA4F81819281820F931F9093A8
:100B3000890080938800E0914B018E2FEE0F990B76
:100B4000FC01EE0FFF1FE80FF91FE859FA4F8081F3
:100B500086FF11C0E0914B018E2FEE0F990BFC0127
:100B6000EE0FFF1FE80FF91FE859FA4F808161E08F
:100B70008F730E94BE00FF91EF91DF91CF91BF91E3
:100B8000AF919F918F917F916F915F914F913F9125
:100B90002F910F900FBE0F901F90189580E49CE945
:100BA00090938900809388008FEF80934B01E3CF6F
:100BB0001092CE041092CD0488EE93E0A0E0B0E055
:100BC0008093CF049093D004A093D104B093D20427
:100BD00084E091E09093CC048093CB0485EC90E08A
:100BE0009093D8048093D70484EC90E09093DA0437
:100BF0008093D90480EC90E09093DC048093DB0434
:100C000081EC90E09093DE048093DD0482EC90E030
:100C10009093E0048093DF0486EC90E09093E204EC
:100C20008093E1041092E4041092E5041092E6042B
:100C30001092E704EDE8F5E029E935E04FEF68EBC5
:100C40007BE080918C058C30B0F491E0980F90930C
:100C50008C05808390E0DC01AA0FBB1FA80FB91F91
:100C6000A859BA4F12967C936E93119733962E170C
:100C70003F0739F708954083F9CF789484B58260AF
:100C800084BD84B5816084BD85B5826085BD85B530
:100C9000816085BD80916E00816080936E001092AE
:100CA0008100809181008260809381008091810029
:100CB00081608093810080918000816080938000BA
:100CC0008091B10084608093B1008091B000816018
:100CD0008093B00080917A00846080937A00809144
:100CE0007A00826080937A0080917A00816080939C
:100CF0007A0080917A00806880937A001092C10017
:100D0000E091DB04F091DC0482E08083E091D70481
:100D1000F091D8041082E091D904F091DA0480E1D6
:100D200080831092E304E091DF04F091E00486E018
:100D30008083E091DD04F091DE0480818061808316
:100D4000E091DD04F091DE04808188608083E09191
:100D5000DD04F091DE04808180688083E091DD0411
:100D6000F091DE0480818F7D808368E270E080E016
:100D700090E00E9442018BE790E00E9473020E9483
:100D800075014B015C010E947501681979098A0996
:100D90009B09643873408105910508F070C08BECA5
:100DA00094E00E94DF01892B71F38BEC94E00E94A8
:100DB000BD018E37910539F78CE291E00E942A033C
:100DC0008934910519F488E690E0D7CF85359105EF
:100DD000D1F684EF91E00E942A03EC0184EF91E0C8
:100DE0000E942A03D7FDCFCF97FDCDCF982F88271C
:100DF000C82BD92BCE0101978115934028F085E4AB
:100E000090E00E946E02BFCFECE4CE2EE1E0DE2E39
:100E1000760110E000E088EE93E00E942A0397FD3F
:100E2000EECFF70181937F01080F111DCF018C5484
:100E300091408C179D0778F388EE93E00E942A0377
:100E400097FDDDCF8013DBCF10E000E0F601F190DD
:100E50006F01C8010E947A0AF81621F06F2DC801AF
:100E60000E94820A0F5F1F4F0C171D0778F38BE457
:100E700090E00E946E028BEC94E00E948E0290E063
:100E800080E00E947004803509F0B5C081E090E0F8
:100E90000E947004823409F0AEC082E090E00E94AB
:100EA0007004813009F0A7C084E090E00E947004D3
:100EB000C82F85E090E00E947004D82F86E090E073
:100EC0000E947004182F87E090E00E947004982F11
:100ED000812F9093800480937F0410927C04289645
:100EE00008E010E00C171D07B8F4E0917C04E8312D
:100EF00098F481E08E0F80937C04F0E0EE0FFF1FEA
:100F0000E45BFB4F11830083C8010E94720490E0F0
:100F10000196080F191FE6CFD0937E04C0937D047D
:100F2000E2E8F4E01192119224E0E23CF207D1F7FA
:100F300010928104F12CE12C64E6862E912CA12CD8
:100F4000B12C80917F0490918004E816F90608F096
:100F500052C0E701219600917D0410917E04C701E3
:100F6000800F911F0E947204803309F459C108F068
:100F700060C0843109F406C190F5803109F4E4C001
:100F8000D8F4823009F4B0C0833009F4C7C081308E
:100F900091F5CE01800F911F0E947204D82EE701B7
:100FA0002396C80102968E0D9F1D0E947204982FF1
:100FB0008D2D0E941204ADC0823109F4D5C008F411
:100FC000CBC00E9400048C010E9400040115110591
:100FD00021F0B8010E94FF0A8B01C801EACF8232DA
:100FE00009F4FDC098F4803209F4E0C008F0EBC0C9
:100FF000853109F4D5C0C0E0D0E02097F1F30E941C
:10100000EB018823D1F30E940000F7CF843209F46A
:10101000FCC008F4EFC0853271F70E9400048C0117
:101020000E94000421E030E0801791070CF0D5C049
:10103000C7C0833509F4BEC188F5813409F40DC1F8
:10104000A0F4823309F402C108F4F6C0803499F6A2
:10105000C00FD11FCE010E947204182FCE0101963D
:101060000E947204D82FC12F54C0813509F40AC1DF
:1010700008F076C1803509F0BECF0E9400047C01E3
:101080000E940004182F61E00E94EC0061E0EF284C
:1010900009F460E0812F0E94BE003BC0803609F455
:1010A000D5C1A0F4853509F4B0C108F499C18635DD
:1010B00009F0A1CF0E9400041816190654F5BC01CE
:1010C000990F880B990B0E94420123C0823609F4C4
:1010D00008C208F4EBC1833609F08DCF60E28BECD7
:1010E00094E00E94210215C032E0E30EF11CCE0113
:1010F000800F911F0E947204803268F4E82FF0E0A4
:10110000EE0FFF1FEE57FB4F808191810E9412046A
:10111000E7017E0116CF90E080E0F8CF82E0E80E94
:10112000F11CCE01800F911F0E947204C82F0E94F3
:101130000004C03268F7EC2FF0E0EE0FFF1FEE570F
:10114000FB4F91838083E4CF0E9400048C010E94B6
:101150000004800F911F2DCF0E9400048C010E947B
:101160000004801B910B25CF0E9400048C010E947B
:101170000004FC010E9FC0010F9F900D1E9F900D5B
:10118000112417CF0E9400048C010E940004011555
:10119000110509F422CFB8010E94FF0A8C011DCF6E
:1011A0000E94000491958195910903CF0E9400044B
:1011B0008C010E94000421E030E00817190769F053
:1011C00030E020E00AC00E9400048C010E9400046C
:1011D00021E030E00817190799F3C901EACE0E940F
:1011E00000048C010E94000421E030E08017910788
:1011F000A4F3E6CF0E9400048C010E94000421E0C9
:1012000030E0081719074CF7DBCF0E9400048C016F
:101210000E94000421E030E008171907F4F2D0CF53
:101220000E9400048C010E940004892B19F081E0C7
:10123000012B51F480E008C00E9400048C010E9440
:101240000004892BA1F381E090E0B3CE0E9400045A
:1012500021E030E0892B09F2B3CF0C0F1D1FC8012C
:101260000E947204D82FC80101960E947204182FA0
:101270000D2FE70123960E940004892B09F049CF26
:10128000E80147CF0E9400046C010E9400047C0129
:101290009C2D8D2DFFEFCF16D10419F014F09FEF88
:1012A00080E0092F182F17FF02C010E000E061E076
:1012B0008E2D0E94EC0061E08E2D0E94EC001C142B
:1012C0001D041CF060E08E2DE6CE2FEFC216D10477
:1012D00014F061E0F8CFF701FF27E054FF4FE491ED
:1012E000E33021F148F4E130B9F0E230D1F030E8F8
:1012F000C316D10474F7E6CFE73011F1E83041F1BD
:10130000E430A9F780918000806280938000109380
:101310008B0000938A00FDCE84B5806884BD07BD34
:10132000F8CE84B5806284BD08BDF3CE8091800084
:101330008068809380001093890000938800E9CE34
:101340008091B00080688093B0000093B300E1CE3C
:101350008091B00080628093B0000093B400D9CE39
:101360000E9400048C0160E00E94EC009801332789
:10137000F901E054FF4F8491F901E455FF4F1491B6
:10138000F901E856FF4F0491002309F453CF81116E
:101390000E949500E02FF0E0EE0FFF1FEF58FF4F87
:1013A000A591B491EC911E2381E090E009F001CE6B
:1013B00080E0FFCD0E940004863008F085E0806464
:1013C00080937C0080917A00806480937A00809181
:1013D0007A0086FDFCCF8091780090917900E9CD6C
:1013E0000E9400047C010E9400048701053B110556
:1013F00014F004EB10E00E946103B80117FF02C073
:1014000070E060E00E94AE0284CE0E9400047C0185
:101410000E94000487010536110514F004E610E06F
:101420000E9461037C01D8010C391F4F14F4ACE910
:10143000BFEF2AE530E00E94130BA50194010E9442
:10144000900AB901665A7F4FC701DCCFC00FD11F88
:10145000CE010E947204182FCE0101960E947204E0
:10146000982F812FE701239620917C0428171906D5
:1014700009F008F44ECE880F991FFC01E45BFB4F86
:1014800000811181C8010E947204E82EF12C0F5FC7
:101490001F4FEF1409F43DCEC8010E947204682F5B
:1014A0008BEC94E00E942102F394F1CF0E9400049F
:1014B0006C01990FEE08FF084AE0C701B601F7FE7C
:1014C0000DC06DE28BEC94E00E9421026627772725
:1014D000CB016C197D098E099F094AE00E94220404
:1014E00018CE42E050E062E171E08BEC94E00E94A3
:1014F00081010FCEF999FECF92BD81BDF89A99274F
:1015000080B50895262FF999FECF1FBA92BD81BDEF
:1015100020BD0FB6F894FA9AF99A0FBE0196089575
:10152000052E97FB1EF400940E94A70A57FD07D0D2
:101530000E94C20A07FC03D04EF40C94A70A5095EF
:101540004095309521953F4F4F4F5F4F08959095AF
:101550008095709561957F4F8F4F9F4F08950E94A2
:10156000E40AA59F900DB49F900DA49F800D911D3E
:1015700011240895B7FF0C94AF0A0E94AF0A821B92
:10158000930B0895A1E21A2EAA1BBB1BFD010DC0EF
:10159000AA1FBB1FEE1FFF1FA217B307E407F50723
:1015A00020F0A21BB30BE40BF50B661F771F881FFF
:1015B000991F1A9469F760957095809590959B0195
:1015C000AC01BD01CF010895A29FB001B39FC0013E
:1015D000A39F700D811D1124911DB29F700D811D5F
:1015E0001124911D0895991B79E004C0991F961745
:1015F00008F0961B881F7A95C9F78095089597FB88
:10160000072E16F4009407D077FD09D00E941A0B1C
:1016100007FC05D03EF4909581959F4F08957095F5
:1016200061957F4F08950E94E40AB7FF0895821BD9
:10163000930B0895AA1BBB1B51E107C0AA1FBB1F38
:10164000A617B70710F0A61BB70B881F991F5A954E
:10165000A9F780959095BC01CD010895EE0FFF1F6D
:0C1660000590F491E02D0994F894FFCF60
:10166C000000000021028101AE018E02DF01BD01EC
:06167C00D1010D0A00007F
:00000001FF
